{"abi":[{"type":"constructor","inputs":[],"stateMutability":"nonpayable"},{"type":"function","name":"approve","inputs":[{"name":"to","type":"address","internalType":"address"},{"name":"tokenId","type":"uint256","internalType":"uint256"}],"outputs":[],"stateMutability":"nonpayable"},{"type":"function","name":"balanceOf","inputs":[{"name":"owner","type":"address","internalType":"address"}],"outputs":[{"name":"","type":"uint256","internalType":"uint256"}],"stateMutability":"view"},{"type":"function","name":"getApproved","inputs":[{"name":"tokenId","type":"uint256","internalType":"uint256"}],"outputs":[{"name":"","type":"address","internalType":"address"}],"stateMutability":"view"},{"type":"function","name":"getOwnedNFTs","inputs":[{"name":"_owner","type":"address","internalType":"address"}],"outputs":[{"name":"","type":"uint256[]","internalType":"uint256[]"}],"stateMutability":"view"},{"type":"function","name":"isApprovedForAll","inputs":[{"name":"owner","type":"address","internalType":"address"},{"name":"operator","type":"address","internalType":"address"}],"outputs":[{"name":"","type":"bool","internalType":"bool"}],"stateMutability":"view"},{"type":"function","name":"mintNFT","inputs":[{"name":"to","type":"address","internalType":"address"},{"name":"tokenURI","type":"string","internalType":"string"}],"outputs":[{"name":"","type":"uint256","internalType":"uint256"}],"stateMutability":"nonpayable"},{"type":"function","name":"name","inputs":[],"outputs":[{"name":"","type":"string","internalType":"string"}],"stateMutability":"view"},{"type":"function","name":"ownedNFT","inputs":[{"name":"","type":"address","internalType":"address"},{"name":"","type":"uint256","internalType":"uint256"}],"outputs":[{"name":"","type":"uint256","internalType":"uint256"}],"stateMutability":"view"},{"type":"function","name":"ownerOf","inputs":[{"name":"tokenId","type":"uint256","internalType":"uint256"}],"outputs":[{"name":"","type":"address","internalType":"address"}],"stateMutability":"view"},{"type":"function","name":"safeTransferFrom","inputs":[{"name":"from","type":"address","internalType":"address"},{"name":"to","type":"address","internalType":"address"},{"name":"tokenId","type":"uint256","internalType":"uint256"}],"outputs":[],"stateMutability":"nonpayable"},{"type":"function","name":"safeTransferFrom","inputs":[{"name":"from","type":"address","internalType":"address"},{"name":"to","type":"address","internalType":"address"},{"name":"tokenId","type":"uint256","internalType":"uint256"},{"name":"data","type":"bytes","internalType":"bytes"}],"outputs":[],"stateMutability":"nonpayable"},{"type":"function","name":"setApprovalForAll","inputs":[{"name":"operator","type":"address","internalType":"address"},{"name":"approved","type":"bool","internalType":"bool"}],"outputs":[],"stateMutability":"nonpayable"},{"type":"function","name":"supportsInterface","inputs":[{"name":"interfaceId","type":"bytes4","internalType":"bytes4"}],"outputs":[{"name":"","type":"bool","internalType":"bool"}],"stateMutability":"view"},{"type":"function","name":"symbol","inputs":[],"outputs":[{"name":"","type":"string","internalType":"string"}],"stateMutability":"view"},{"type":"function","name":"tokenURI","inputs":[{"name":"tokenId","type":"uint256","internalType":"uint256"}],"outputs":[{"name":"","type":"string","internalType":"string"}],"stateMutability":"view"},{"type":"function","name":"transferFrom","inputs":[{"name":"from","type":"address","internalType":"address"},{"name":"to","type":"address","internalType":"address"},{"name":"tokenId","type":"uint256","internalType":"uint256"}],"outputs":[],"stateMutability":"nonpayable"},{"type":"event","name":"Approval","inputs":[{"name":"owner","type":"address","indexed":true,"internalType":"address"},{"name":"approved","type":"address","indexed":true,"internalType":"address"},{"name":"tokenId","type":"uint256","indexed":true,"internalType":"uint256"}],"anonymous":false},{"type":"event","name":"ApprovalForAll","inputs":[{"name":"owner","type":"address","indexed":true,"internalType":"address"},{"name":"operator","type":"address","indexed":true,"internalType":"address"},{"name":"approved","type":"bool","indexed":false,"internalType":"bool"}],"anonymous":false},{"type":"event","name":"BatchMetadataUpdate","inputs":[{"name":"_fromTokenId","type":"uint256","indexed":false,"internalType":"uint256"},{"name":"_toTokenId","type":"uint256","indexed":false,"internalType":"uint256"}],"anonymous":false},{"type":"event","name":"MetadataUpdate","inputs":[{"name":"_tokenId","type":"uint256","indexed":false,"internalType":"uint256"}],"anonymous":false},{"type":"event","name":"Transfer","inputs":[{"name":"from","type":"address","indexed":true,"internalType":"address"},{"name":"to","type":"address","indexed":true,"internalType":"address"},{"name":"tokenId","type":"uint256","indexed":true,"internalType":"uint256"}],"anonymous":false},{"type":"error","name":"ERC721IncorrectOwner","inputs":[{"name":"sender","type":"address","internalType":"address"},{"name":"tokenId","type":"uint256","internalType":"uint256"},{"name":"owner","type":"address","internalType":"address"}]},{"type":"error","name":"ERC721InsufficientApproval","inputs":[{"name":"operator","type":"address","internalType":"address"},{"name":"tokenId","type":"uint256","internalType":"uint256"}]},{"type":"error","name":"ERC721InvalidApprover","inputs":[{"name":"approver","type":"address","internalType":"address"}]},{"type":"error","name":"ERC721InvalidOperator","inputs":[{"name":"operator","type":"address","internalType":"address"}]},{"type":"error","name":"ERC721InvalidOwner","inputs":[{"name":"owner","type":"address","internalType":"address"}]},{"type":"error","name":"ERC721InvalidReceiver","inputs":[{"name":"receiver","type":"address","internalType":"address"}]},{"type":"error","name":"ERC721InvalidSender","inputs":[{"name":"sender","type":"address","internalType":"address"}]},{"type":"error","name":"ERC721NonexistentToken","inputs":[{"name":"tokenId","type":"uint256","internalType":"uint256"}]}],"bytecode":{"object":"0x608060405234801561001057600080fd5b5060405180604001604052806005815260200164135e53919560da1b815250604051806040016040528060048152602001631353919560e21b815250816000908161005b9190610111565b5060016100688282610111565b5050506101d0565b634e487b7160e01b600052604160045260246000fd5b600181811c9082168061009a57607f821691505b6020821081036100ba57634e487b7160e01b600052602260045260246000fd5b50919050565b601f82111561010c576000816000526020600020601f850160051c810160208610156100e95750805b601f850160051c820191505b81811015610108578281556001016100f5565b5050505b505050565b81516001600160401b0381111561012a5761012a610070565b61013e816101388454610086565b846100c0565b602080601f831160018114610173576000841561015b5750858301515b600019600386901b1c1916600185901b178555610108565b600085815260208120601f198616915b828110156101a257888601518255948401946001909101908401610183565b50858210156101c05787850151600019600388901b60f8161c191681555b5050505050600190811b01905550565b61142c806101df6000396000f3fe608060405234801561001057600080fd5b50600436106101005760003560e01c80636352211e11610097578063b88d4fde11610066578063b88d4fde1461022a578063c87b56dd1461023d578063e985e9c514610250578063eacabe141461026357600080fd5b80636352211e146101e957806370a08231146101fc57806395d89b411461020f578063a22cb4651461021757600080fd5b806318148f1b116100d357806318148f1b146101825780631daad894146101a257806323b872dd146101c357806342842e0e146101d657600080fd5b806301ffc9a71461010557806306fdde031461012d578063081812fc14610142578063095ea7b31461016d575b600080fd5b610118610113366004610eb1565b610276565b60405190151581526020015b60405180910390f35b6101356102a1565b6040516101249190610f1e565b610155610150366004610f31565b610333565b6040516001600160a01b039091168152602001610124565b61018061017b366004610f66565b61035c565b005b610195610190366004610f90565b61036b565b6040516101249190610fab565b6101b56101b0366004610f66565b6103d7565b604051908152602001610124565b6101806101d1366004610fef565b610408565b6101806101e4366004610fef565b610498565b6101556101f7366004610f31565b6104b8565b6101b561020a366004610f90565b6104c3565b61013561050b565b61018061022536600461102b565b61051a565b6101806102383660046110f3565b610525565b61013561024b366004610f31565b61053d565b61011861025e36600461116f565b61064e565b6101b56102713660046111a2565b61067c565b60006001600160e01b03198216632483248360e11b148061029b575061029b826106dd565b92915050565b6060600080546102b090611204565b80601f01602080910402602001604051908101604052809291908181526020018280546102dc90611204565b80156103295780601f106102fe57610100808354040283529160200191610329565b820191906000526020600020905b81548152906001019060200180831161030c57829003601f168201915b5050505050905090565b600061033e8261072d565b506000828152600460205260409020546001600160a01b031661029b565b610367828233610766565b5050565b6001600160a01b0381166000908152600860209081526040918290208054835181840281018401909452808452606093928301828280156103cb57602002820191906000526020600020905b8154815260200190600101908083116103b7575b50505050509050919050565b600860205281600052604060002081815481106103f357600080fd5b90600052602060002001600091509150505481565b6001600160a01b03821661043757604051633250574960e11b8152600060048201526024015b60405180910390fd5b6000610444838333610773565b9050836001600160a01b0316816001600160a01b031614610492576040516364283d7b60e01b81526001600160a01b038086166004830152602482018490528216604482015260640161042e565b50505050565b6104b383838360405180602001604052806000815250610525565b505050565b600061029b8261072d565b60006001600160a01b0382166104ef576040516322718ad960e21b81526000600482015260240161042e565b506001600160a01b031660009081526003602052604090205490565b6060600180546102b090611204565b61036733838361086c565b610530848484610408565b610492338585858561090b565b60606105488261072d565b506000828152600660205260408120805461056290611204565b80601f016020809104026020016040519081016040528092919081815260200182805461058e90611204565b80156105db5780601f106105b0576101008083540402835291602001916105db565b820191906000526020600020905b8154815290600101906020018083116105be57829003601f168201915b5050505050905060006105f960408051602081019091526000815290565b9050805160000361060b575092915050565b81511561063d57808260405160200161062592919061123e565b60405160208183030381529060405292505050919050565b61064684610a36565b949350505050565b6001600160a01b03918216600090815260056020908152604080832093909416825291909152205460ff1690565b60078054600091829190826106908361126d565b9190505590506106a08482610aab565b6106aa8184610b10565b6001600160a01b038416600090815260086020908152604082208054600181018255908352912001819055905092915050565b60006001600160e01b031982166380ac58cd60e01b148061070e57506001600160e01b03198216635b5e139f60e01b145b8061029b57506301ffc9a760e01b6001600160e01b031983161461029b565b6000818152600260205260408120546001600160a01b03168061029b57604051637e27328960e01b81526004810184905260240161042e565b6104b38383836001610b60565b6000828152600260205260408120546001600160a01b03908116908316156107a0576107a0818486610c66565b6001600160a01b038116156107de576107bd600085600080610b60565b6001600160a01b038116600090815260036020526040902080546000190190555b6001600160a01b0385161561080d576001600160a01b0385166000908152600360205260409020805460010190555b60008481526002602052604080822080546001600160a01b0319166001600160a01b0389811691821790925591518793918516917fddf252ad1be2c89b69c2b068fc378daa952ba7f163c4a11628f55a4df523b3ef91a4949350505050565b6001600160a01b03821661089e57604051630b61174360e31b81526001600160a01b038316600482015260240161042e565b6001600160a01b03838116600081815260056020908152604080832094871680845294825291829020805460ff191686151590811790915591519182527f17307eab39ab6107e8899845ad3d59bd9653f200f220920489ca2b5937696c31910160405180910390a3505050565b6001600160a01b0383163b15610a2f57604051630a85bd0160e11b81526001600160a01b0384169063150b7a029061094d908890889087908790600401611294565b6020604051808303816000875af1925050508015610988575060408051601f3d908101601f19168201909252610985918101906112d1565b60015b6109f1573d8080156109b6576040519150601f19603f3d011682016040523d82523d6000602084013e6109bb565b606091505b5080516000036109e957604051633250574960e11b81526001600160a01b038516600482015260240161042e565b805181602001fd5b6001600160e01b03198116630a85bd0160e11b14610a2d57604051633250574960e11b81526001600160a01b038516600482015260240161042e565b505b5050505050565b6060610a418261072d565b506000610a5960408051602081019091526000815290565b90506000815111610a795760405180602001604052806000815250610aa4565b80610a8384610cca565b604051602001610a9492919061123e565b6040516020818303038152906040525b9392505050565b6001600160a01b038216610ad557604051633250574960e11b81526000600482015260240161042e565b6000610ae383836000610773565b90506001600160a01b038116156104b3576040516339e3563760e11b81526000600482015260240161042e565b6000828152600660205260409020610b288282611336565b506040518281527ff8e1a15aba9398e019f0b49df1a4fde98ee17ae345cb5f6b5e2c27f5033e8ce79060200160405180910390a15050565b8080610b7457506001600160a01b03821615155b15610c36576000610b848461072d565b90506001600160a01b03831615801590610bb05750826001600160a01b0316816001600160a01b031614155b8015610bc35750610bc1818461064e565b155b15610bec5760405163a9fbf51f60e01b81526001600160a01b038416600482015260240161042e565b8115610c345783856001600160a01b0316826001600160a01b03167f8c5be1e5ebec7d5bd14f71427d1e84f3dd0314c0f7b2291e5b200ac8c7c3b92560405160405180910390a45b505b5050600090815260046020526040902080546001600160a01b0319166001600160a01b0392909216919091179055565b610c71838383610d5d565b6104b3576001600160a01b038316610c9f57604051637e27328960e01b81526004810182905260240161042e565b60405163177e802f60e01b81526001600160a01b03831660048201526024810182905260440161042e565b60606000610cd783610dc0565b600101905060008167ffffffffffffffff811115610cf757610cf7611067565b6040519080825280601f01601f191660200182016040528015610d21576020820181803683370190505b5090508181016020015b600019016f181899199a1a9b1b9c1cb0b131b232b360811b600a86061a8153600a8504945084610d2b57509392505050565b60006001600160a01b038316158015906106465750826001600160a01b0316846001600160a01b03161480610d975750610d97848461064e565b806106465750506000908152600460205260409020546001600160a01b03908116911614919050565b60008072184f03e93ff9f4daa797ed6e38ed64bf6a1f0160401b8310610dff5772184f03e93ff9f4daa797ed6e38ed64bf6a1f0160401b830492506040015b6d04ee2d6d415b85acef81000000008310610e2b576d04ee2d6d415b85acef8100000000830492506020015b662386f26fc100008310610e4957662386f26fc10000830492506010015b6305f5e1008310610e61576305f5e100830492506008015b6127108310610e7557612710830492506004015b60648310610e87576064830492506002015b600a831061029b5760010192915050565b6001600160e01b031981168114610eae57600080fd5b50565b600060208284031215610ec357600080fd5b8135610aa481610e98565b60005b83811015610ee9578181015183820152602001610ed1565b50506000910152565b60008151808452610f0a816020860160208601610ece565b601f01601f19169290920160200192915050565b602081526000610aa46020830184610ef2565b600060208284031215610f4357600080fd5b5035919050565b80356001600160a01b0381168114610f6157600080fd5b919050565b60008060408385031215610f7957600080fd5b610f8283610f4a565b946020939093013593505050565b600060208284031215610fa257600080fd5b610aa482610f4a565b6020808252825182820181905260009190848201906040850190845b81811015610fe357835183529284019291840191600101610fc7565b50909695505050505050565b60008060006060848603121561100457600080fd5b61100d84610f4a565b925061101b60208501610f4a565b9150604084013590509250925092565b6000806040838503121561103e57600080fd5b61104783610f4a565b91506020830135801515811461105c57600080fd5b809150509250929050565b634e487b7160e01b600052604160045260246000fd5b600067ffffffffffffffff8084111561109857611098611067565b604051601f8501601f19908116603f011681019082821181831017156110c0576110c0611067565b816040528093508581528686860111156110d957600080fd5b858560208301376000602087830101525050509392505050565b6000806000806080858703121561110957600080fd5b61111285610f4a565b935061112060208601610f4a565b925060408501359150606085013567ffffffffffffffff81111561114357600080fd5b8501601f8101871361115457600080fd5b6111638782356020840161107d565b91505092959194509250565b6000806040838503121561118257600080fd5b61118b83610f4a565b915061119960208401610f4a565b90509250929050565b600080604083850312156111b557600080fd5b6111be83610f4a565b9150602083013567ffffffffffffffff8111156111da57600080fd5b8301601f810185136111eb57600080fd5b6111fa8582356020840161107d565b9150509250929050565b600181811c9082168061121857607f821691505b60208210810361123857634e487b7160e01b600052602260045260246000fd5b50919050565b60008351611250818460208801610ece565b835190830190611264818360208801610ece565b01949350505050565b60006001820161128d57634e487b7160e01b600052601160045260246000fd5b5060010190565b6001600160a01b03858116825284166020820152604081018390526080606082018190526000906112c790830184610ef2565b9695505050505050565b6000602082840312156112e357600080fd5b8151610aa481610e98565b601f8211156104b3576000816000526020600020601f850160051c810160208610156113175750805b601f850160051c820191505b81811015610a2d57828155600101611323565b815167ffffffffffffffff81111561135057611350611067565b6113648161135e8454611204565b846112ee565b602080601f83116001811461139957600084156113815750858301515b600019600386901b1c1916600185901b178555610a2d565b600085815260208120601f198616915b828110156113c8578886015182559484019460019091019084016113a9565b50858210156113e65787850151600019600388901b60f8161c191681555b5050505050600190811b0190555056fea26469706673582212205709b2103d34fc3c2a032115cc975510a58fc6251779f1e834236e57fad2618c64736f6c63430008190033","linkReferences":{}},"methodIdentifiers":{"approve(address,uint256)":"095ea7b3","balanceOf(address)":"70a08231","getApproved(uint256)":"081812fc","getOwnedNFTs(address)":"18148f1b","isApprovedForAll(address,address)":"e985e9c5","mintNFT(address,string)":"eacabe14","name()":"06fdde03","ownedNFT(address,uint256)":"1daad894","ownerOf(uint256)":"6352211e","safeTransferFrom(address,address,uint256)":"42842e0e","safeTransferFrom(address,address,uint256,bytes)":"b88d4fde","setApprovalForAll(address,bool)":"a22cb465","supportsInterface(bytes4)":"01ffc9a7","symbol()":"95d89b41","tokenURI(uint256)":"c87b56dd","transferFrom(address,address,uint256)":"23b872dd"},"id":31}