{"abi":[{"type":"constructor","inputs":[],"stateMutability":"nonpayable"},{"type":"function","name":"approve","inputs":[{"name":"to","type":"address","internalType":"address"},{"name":"tokenId","type":"uint256","internalType":"uint256"}],"outputs":[],"stateMutability":"nonpayable"},{"type":"function","name":"balanceOf","inputs":[{"name":"owner","type":"address","internalType":"address"}],"outputs":[{"name":"","type":"uint256","internalType":"uint256"}],"stateMutability":"view"},{"type":"function","name":"createToken","inputs":[{"name":"tokenURI","type":"string","internalType":"string"},{"name":"price","type":"uint256","internalType":"uint256"}],"outputs":[{"name":"","type":"uint256","internalType":"uint256"}],"stateMutability":"payable"},{"type":"function","name":"executeSale","inputs":[{"name":"tokenId","type":"uint256","internalType":"uint256"}],"outputs":[],"stateMutability":"payable"},{"type":"function","name":"getAllNFTs","inputs":[],"outputs":[{"name":"","type":"tuple[]","internalType":"struct NFTMarketplace.ListedToken[]","components":[{"name":"tokenId","type":"uint256","internalType":"uint256"},{"name":"owner","type":"address","internalType":"address payable"},{"name":"seller","type":"address","internalType":"address payable"},{"name":"price","type":"uint256","internalType":"uint256"},{"name":"currentlyListed","type":"bool","internalType":"bool"}]}],"stateMutability":"view"},{"type":"function","name":"getApproved","inputs":[{"name":"tokenId","type":"uint256","internalType":"uint256"}],"outputs":[{"name":"","type":"address","internalType":"address"}],"stateMutability":"view"},{"type":"function","name":"getCurrentToken","inputs":[],"outputs":[{"name":"","type":"uint256","internalType":"uint256"}],"stateMutability":"view"},{"type":"function","name":"getLatestIdToListedToken","inputs":[],"outputs":[{"name":"","type":"tuple","internalType":"struct NFTMarketplace.ListedToken","components":[{"name":"tokenId","type":"uint256","internalType":"uint256"},{"name":"owner","type":"address","internalType":"address payable"},{"name":"seller","type":"address","internalType":"address payable"},{"name":"price","type":"uint256","internalType":"uint256"},{"name":"currentlyListed","type":"bool","internalType":"bool"}]}],"stateMutability":"view"},{"type":"function","name":"getListPrice","inputs":[],"outputs":[{"name":"","type":"uint256","internalType":"uint256"}],"stateMutability":"view"},{"type":"function","name":"getListedTokenForId","inputs":[{"name":"tokenId","type":"uint256","internalType":"uint256"}],"outputs":[{"name":"","type":"tuple","internalType":"struct NFTMarketplace.ListedToken","components":[{"name":"tokenId","type":"uint256","internalType":"uint256"},{"name":"owner","type":"address","internalType":"address payable"},{"name":"seller","type":"address","internalType":"address payable"},{"name":"price","type":"uint256","internalType":"uint256"},{"name":"currentlyListed","type":"bool","internalType":"bool"}]}],"stateMutability":"view"},{"type":"function","name":"getMyNFTs","inputs":[],"outputs":[{"name":"","type":"tuple[]","internalType":"struct NFTMarketplace.ListedToken[]","components":[{"name":"tokenId","type":"uint256","internalType":"uint256"},{"name":"owner","type":"address","internalType":"address payable"},{"name":"seller","type":"address","internalType":"address payable"},{"name":"price","type":"uint256","internalType":"uint256"},{"name":"currentlyListed","type":"bool","internalType":"bool"}]}],"stateMutability":"view"},{"type":"function","name":"getOwner","inputs":[],"outputs":[{"name":"","type":"address","internalType":"address"}],"stateMutability":"view"},{"type":"function","name":"isApprovedForAll","inputs":[{"name":"owner","type":"address","internalType":"address"},{"name":"operator","type":"address","internalType":"address"}],"outputs":[{"name":"","type":"bool","internalType":"bool"}],"stateMutability":"view"},{"type":"function","name":"name","inputs":[],"outputs":[{"name":"","type":"string","internalType":"string"}],"stateMutability":"view"},{"type":"function","name":"ownerOf","inputs":[{"name":"tokenId","type":"uint256","internalType":"uint256"}],"outputs":[{"name":"","type":"address","internalType":"address"}],"stateMutability":"view"},{"type":"function","name":"safeTransferFrom","inputs":[{"name":"from","type":"address","internalType":"address"},{"name":"to","type":"address","internalType":"address"},{"name":"tokenId","type":"uint256","internalType":"uint256"}],"outputs":[],"stateMutability":"nonpayable"},{"type":"function","name":"safeTransferFrom","inputs":[{"name":"from","type":"address","internalType":"address"},{"name":"to","type":"address","internalType":"address"},{"name":"tokenId","type":"uint256","internalType":"uint256"},{"name":"data","type":"bytes","internalType":"bytes"}],"outputs":[],"stateMutability":"nonpayable"},{"type":"function","name":"setApprovalForAll","inputs":[{"name":"operator","type":"address","internalType":"address"},{"name":"approved","type":"bool","internalType":"bool"}],"outputs":[],"stateMutability":"nonpayable"},{"type":"function","name":"supportsInterface","inputs":[{"name":"interfaceId","type":"bytes4","internalType":"bytes4"}],"outputs":[{"name":"","type":"bool","internalType":"bool"}],"stateMutability":"view"},{"type":"function","name":"symbol","inputs":[],"outputs":[{"name":"","type":"string","internalType":"string"}],"stateMutability":"view"},{"type":"function","name":"tokenURI","inputs":[{"name":"tokenId","type":"uint256","internalType":"uint256"}],"outputs":[{"name":"","type":"string","internalType":"string"}],"stateMutability":"view"},{"type":"function","name":"transferFrom","inputs":[{"name":"from","type":"address","internalType":"address"},{"name":"to","type":"address","internalType":"address"},{"name":"tokenId","type":"uint256","internalType":"uint256"}],"outputs":[],"stateMutability":"nonpayable"},{"type":"function","name":"updateListPrice","inputs":[{"name":"_listPrice","type":"uint256","internalType":"uint256"}],"outputs":[],"stateMutability":"payable"},{"type":"event","name":"Approval","inputs":[{"name":"owner","type":"address","indexed":true,"internalType":"address"},{"name":"approved","type":"address","indexed":true,"internalType":"address"},{"name":"tokenId","type":"uint256","indexed":true,"internalType":"uint256"}],"anonymous":false},{"type":"event","name":"ApprovalForAll","inputs":[{"name":"owner","type":"address","indexed":true,"internalType":"address"},{"name":"operator","type":"address","indexed":true,"internalType":"address"},{"name":"approved","type":"bool","indexed":false,"internalType":"bool"}],"anonymous":false},{"type":"event","name":"BatchMetadataUpdate","inputs":[{"name":"_fromTokenId","type":"uint256","indexed":false,"internalType":"uint256"},{"name":"_toTokenId","type":"uint256","indexed":false,"internalType":"uint256"}],"anonymous":false},{"type":"event","name":"MetadataUpdate","inputs":[{"name":"_tokenId","type":"uint256","indexed":false,"internalType":"uint256"}],"anonymous":false},{"type":"event","name":"TokenListedSuccess","inputs":[{"name":"tokenId","type":"uint256","indexed":true,"internalType":"uint256"},{"name":"owner","type":"address","indexed":false,"internalType":"address"},{"name":"seller","type":"address","indexed":false,"internalType":"address"},{"name":"price","type":"uint256","indexed":false,"internalType":"uint256"},{"name":"currentlyListed","type":"bool","indexed":false,"internalType":"bool"}],"anonymous":false},{"type":"event","name":"Transfer","inputs":[{"name":"from","type":"address","indexed":true,"internalType":"address"},{"name":"to","type":"address","indexed":true,"internalType":"address"},{"name":"tokenId","type":"uint256","indexed":true,"internalType":"uint256"}],"anonymous":false},{"type":"error","name":"ERC721IncorrectOwner","inputs":[{"name":"sender","type":"address","internalType":"address"},{"name":"tokenId","type":"uint256","internalType":"uint256"},{"name":"owner","type":"address","internalType":"address"}]},{"type":"error","name":"ERC721InsufficientApproval","inputs":[{"name":"operator","type":"address","internalType":"address"},{"name":"tokenId","type":"uint256","internalType":"uint256"}]},{"type":"error","name":"ERC721InvalidApprover","inputs":[{"name":"approver","type":"address","internalType":"address"}]},{"type":"error","name":"ERC721InvalidOperator","inputs":[{"name":"operator","type":"address","internalType":"address"}]},{"type":"error","name":"ERC721InvalidOwner","inputs":[{"name":"owner","type":"address","internalType":"address"}]},{"type":"error","name":"ERC721InvalidReceiver","inputs":[{"name":"receiver","type":"address","internalType":"address"}]},{"type":"error","name":"ERC721InvalidSender","inputs":[{"name":"sender","type":"address","internalType":"address"}]},{"type":"error","name":"ERC721NonexistentToken","inputs":[{"name":"tokenId","type":"uint256","internalType":"uint256"}]}],"bytecode":{"object":"0x6080604052662386f26fc10000600a5534801561001b57600080fd5b506040518060400160405280600e81526020016d4e46544d61726b6574706c61636560901b815250604051806040016040528060048152602001634e46544d60e01b815250816000908161006f9190610137565b50600161007c8282610137565b5050600980546001600160a01b03191633179055506101f6565b634e487b7160e01b600052604160045260246000fd5b600181811c908216806100c057607f821691505b6020821081036100e057634e487b7160e01b600052602260045260246000fd5b50919050565b601f821115610132576000816000526020600020601f850160051c8101602086101561010f5750805b601f850160051c820191505b8181101561012e5782815560010161011b565b5050505b505050565b81516001600160401b0381111561015057610150610096565b6101648161015e84546100ac565b846100e6565b602080601f83116001811461019957600084156101815750858301515b600019600386901b1c1916600185901b17855561012e565b600085815260208120601f198616915b828110156101c8578886015182559484019460019091019084016101a9565b50858210156101e65787850151600019600388901b60f8161c191681555b5050505050600190811b01905550565b611e05806102056000396000f3fe6080604052600436106101405760003560e01c8063893d20e8116100b6578063c322579c1161006f578063c322579c1461037d578063c87b56dd14610390578063d1a88ae5146103b0578063e0391b09146103c5578063e985e9c5146103da578063ef2d1746146103fa57600080fd5b8063893d20e8146102ca5780638e264590146102e857806395d89b41146103155780639b1225c41461032a578063a22cb4651461033d578063b88d4fde1461035d57600080fd5b806342842e0e1161010857806342842e0e14610216578063629cb2e4146102365780636352211e1461025857806368f1945f1461027857806370a082311461029757806372b3b620146102b757600080fd5b806301ffc9a71461014557806306fdde031461017a578063081812fc1461019c578063095ea7b3146101d457806323b872dd146101f6575b600080fd5b34801561015157600080fd5b5061016561016036600461182b565b61040f565b60405190151581526020015b60405180910390f35b34801561018657600080fd5b5061018f61043a565b6040516101719190611898565b3480156101a857600080fd5b506101bc6101b73660046118ab565b6104cc565b6040516001600160a01b039091168152602001610171565b3480156101e057600080fd5b506101f46101ef3660046118e0565b6104f5565b005b34801561020257600080fd5b506101f461021136600461190a565b610504565b34801561022257600080fd5b506101f461023136600461190a565b610594565b34801561024257600080fd5b5061024b6105b4565b6040516101719190611986565b34801561026457600080fd5b506101bc6102733660046118ab565b6107c7565b34801561028457600080fd5b50600a545b604051908152602001610171565b3480156102a357600080fd5b506102896102b23660046119d4565b6107d2565b6102896102c5366004611a7b565b61081a565b3480156102d657600080fd5b506009546001600160a01b03166101bc565b3480156102f457600080fd5b506103086103033660046118ab565b61085c565b6040516101719190611ad4565b34801561032157600080fd5b5061018f6108c6565b6101f46103383660046118ab565b6108d5565b34801561034957600080fd5b506101f4610358366004611ae2565b610a33565b34801561036957600080fd5b506101f4610378366004611b1e565b610a3e565b6101f461038b3660046118ab565b610a56565b34801561039c57600080fd5b5061018f6103ab3660046118ab565b610ac1565b3480156103bc57600080fd5b50610308610bd2565b3480156103d157600080fd5b5061024b610c49565b3480156103e657600080fd5b506101656103f5366004611b9a565b610d68565b34801561040657600080fd5b50610289610d96565b60006001600160e01b03198216632483248360e11b1480610434575061043482610da6565b92915050565b60606000805461044990611bcd565b80601f016020809104026020016040519081016040528092919081815260200182805461047590611bcd565b80156104c25780601f10610497576101008083540402835291602001916104c2565b820191906000526020600020905b8154815290600101906020018083116104a557829003601f168201915b5050505050905090565b60006104d782610df6565b506000828152600460205260409020546001600160a01b0316610434565b610500828233610e2f565b5050565b6001600160a01b03821661053357604051633250574960e11b8152600060048201526024015b60405180910390fd5b6000610540838333610e3c565b9050836001600160a01b0316816001600160a01b03161461058e576040516364283d7b60e01b81526001600160a01b038086166004830152602482018490528216604482015260640161052a565b50505050565b6105af83838360405180602001604052806000815250610a3e565b505050565b606060006105c160075490565b905060008080805b8481101561064f5733600b60006105e1846001611c07565b81526020810191909152604001600020600101546001600160a01b03161480610634575033600b6000610615846001611c07565b81526020810191909152604001600020600201546001600160a01b0316145b1561064757610644600185611c07565b93505b6001016105c9565b5060008367ffffffffffffffff81111561066b5761066b6119ef565b6040519080825280602002602001820160405280156106a457816020015b6106916117e4565b8152602001906001900390816106895790505b50905060005b858110156107bd5733600b60006106c2846001611c07565b81526020810191909152604001600020600101546001600160a01b03161480610715575033600b60006106f6846001611c07565b81526020810191909152604001600020600201546001600160a01b0316145b156107b557610725816001611c07565b6000818152600b6020908152604091829020825160a0810184528154815260018201546001600160a01b039081169382019390935260028201549092169282019290925260038201546060820152600482015460ff16151560808201528451929550909184908790811061079b5761079b611c28565b60209081029190910101526107b1600186611c07565b9450505b6001016106aa565b5095945050505050565b600061043482610df6565b60006001600160a01b0382166107fe576040516322718ad960e21b81526000600482015260240161052a565b506001600160a01b031660009081526003602052604090205490565b600061082a600780546001019055565b600061083560075490565b90506108413382610f35565b61084b8185610f4f565b6108558184610f9f565b9392505050565b6108646117e4565b506000908152600b6020908152604091829020825160a0810184528154815260018201546001600160a01b03908116938201939093526002820154909216928201929092526003820154606082015260049091015460ff161515608082015290565b60606001805461044990611bcd565b6000818152600b6020526040902060038101546002909101546001600160a01b031634821461096e576040805162461bcd60e51b81526020600482015260248101919091527f506c65617365207375626d6974207468652061736b696e67207072696365206960448201527f6e206f7264657220746f20636f6d706c65746520746865207075726368617365606482015260840161052a565b6000838152600b6020526040902060048101805460ff1916600117905560020180546001600160a01b031916331790556109ac600880546001019055565b6109b7303385611141565b6109c130846104f5565b600954600a546040516001600160a01b039092169181156108fc0291906000818181858888f193505050501580156109fd573d6000803e3d6000fd5b506040516001600160a01b038216903480156108fc02916000818181858888f1935050505015801561058e573d6000803e3d6000fd5b6105003383836111f1565b610a49848484610504565b61058e3385858585611290565b6009546001600160a01b03163314610abc5760405162461bcd60e51b815260206004820152602360248201527f4f6e6c79206f776e65722063616e20757064617465206c697374696e6720707260448201526269636560e81b606482015260840161052a565b600a55565b6060610acc82610df6565b5060008281526006602052604081208054610ae690611bcd565b80601f0160208091040260200160405190810160405280929190818152602001828054610b1290611bcd565b8015610b5f5780601f10610b3457610100808354040283529160200191610b5f565b820191906000526020600020905b815481529060010190602001808311610b4257829003601f168201915b505050505090506000610b7d60408051602081019091526000815290565b90508051600003610b8f575092915050565b815115610bc1578082604051602001610ba9929190611c3e565b60405160208183030381529060405292505050919050565b610bca846113bb565b949350505050565b610bda6117e4565b6000610be560075490565b6000908152600b6020908152604091829020825160a0810184528154815260018201546001600160a01b03908116938201939093526002820154909216928201929092526003820154606082015260049091015460ff161515608082015292915050565b60606000610c5660075490565b905060008167ffffffffffffffff811115610c7357610c736119ef565b604051908082528060200260200182016040528015610cac57816020015b610c996117e4565b815260200190600190039081610c915790505b509050600080805b84811015610d5e57610cc7816001611c07565b6000818152600b6020908152604091829020825160a0810184528154815260018201546001600160a01b039081169382019390935260028201549092169282019290925260038201546060820152600482015460ff161515608082015286519294509091869086908110610d3d57610d3d611c28565b6020908102919091010152610d53600185611c07565b935050600101610cb4565b5091949350505050565b6001600160a01b03918216600090815260056020908152604080832093909416825291909152205460ff1690565b6000610da160075490565b905090565b60006001600160e01b031982166380ac58cd60e01b1480610dd757506001600160e01b03198216635b5e139f60e01b145b8061043457506301ffc9a760e01b6001600160e01b0319831614610434565b6000818152600260205260408120546001600160a01b03168061043457604051637e27328960e01b81526004810184905260240161052a565b6105af838383600161142f565b6000828152600260205260408120546001600160a01b0390811690831615610e6957610e69818486611535565b6001600160a01b03811615610ea757610e8660008560008061142f565b6001600160a01b038116600090815260036020526040902080546000190190555b6001600160a01b03851615610ed6576001600160a01b0385166000908152600360205260409020805460010190555b60008481526002602052604080822080546001600160a01b0319166001600160a01b0389811691821790925591518793918516917fddf252ad1be2c89b69c2b068fc378daa952ba7f163c4a11628f55a4df523b3ef91a4949350505050565b610500828260405180602001604052806000815250611599565b6000828152600660205260409020610f678282611cb5565b506040518281527ff8e1a15aba9398e019f0b49df1a4fde98ee17ae345cb5f6b5e2c27f5033e8ce79060200160405180910390a15050565b600a543414610ffc5760405162461bcd60e51b815260206004820152602360248201527f486f706566756c6c792073656e64696e672074686520636f727265637420707260448201526269636560e81b606482015260840161052a565b600081116110575760405162461bcd60e51b815260206004820152602260248201527f4d616b652073757265207468652070726963652069736e2774206e6567617469604482015261766560f01b606482015260840161052a565b6040805160a081018252838152306020808301828152338486018181526060860188815260016080880181815260008c8152600b9097529890952096518755925193860180546001600160a01b039586166001600160a01b03199182161790915590516002870180549190951691161790925551600384015592516004909201805492151560ff19909316929092179091556110f4919084611141565b604080513081523360208201529081018290526001606082015282907f9339409317fd01fabff48b703019016f49159bacc801ae872d2ca637d226e4c09060800160405180910390a25050565b6001600160a01b03821661116b57604051633250574960e11b81526000600482015260240161052a565b600061117983836000610e3c565b90506001600160a01b0381166111a557604051637e27328960e01b81526004810183905260240161052a565b836001600160a01b0316816001600160a01b03161461058e576040516364283d7b60e01b81526001600160a01b038086166004830152602482018490528216604482015260640161052a565b6001600160a01b03821661122357604051630b61174360e31b81526001600160a01b038316600482015260240161052a565b6001600160a01b03838116600081815260056020908152604080832094871680845294825291829020805460ff191686151590811790915591519182527f17307eab39ab6107e8899845ad3d59bd9653f200f220920489ca2b5937696c31910160405180910390a3505050565b6001600160a01b0383163b156113b457604051630a85bd0160e11b81526001600160a01b0384169063150b7a02906112d2908890889087908790600401611d75565b6020604051808303816000875af192505050801561130d575060408051601f3d908101601f1916820190925261130a91810190611db2565b60015b611376573d80801561133b576040519150601f19603f3d011682016040523d82523d6000602084013e611340565b606091505b50805160000361136e57604051633250574960e11b81526001600160a01b038516600482015260240161052a565b805181602001fd5b6001600160e01b03198116630a85bd0160e11b146113b257604051633250574960e11b81526001600160a01b038516600482015260240161052a565b505b5050505050565b60606113c682610df6565b5060006113de60408051602081019091526000815290565b905060008151116113fe5760405180602001604052806000815250610855565b80611408846115b1565b604051602001611419929190611c3e565b6040516020818303038152906040529392505050565b808061144357506001600160a01b03821615155b1561150557600061145384610df6565b90506001600160a01b0383161580159061147f5750826001600160a01b0316816001600160a01b031614155b801561149257506114908184610d68565b155b156114bb5760405163a9fbf51f60e01b81526001600160a01b038416600482015260240161052a565b81156115035783856001600160a01b0316826001600160a01b03167f8c5be1e5ebec7d5bd14f71427d1e84f3dd0314c0f7b2291e5b200ac8c7c3b92560405160405180910390a45b505b5050600090815260046020526040902080546001600160a01b0319166001600160a01b0392909216919091179055565b611540838383611644565b6105af576001600160a01b03831661156e57604051637e27328960e01b81526004810182905260240161052a565b60405163177e802f60e01b81526001600160a01b03831660048201526024810182905260440161052a565b6115a383836116a7565b6105af336000858585611290565b606060006115be8361170c565b600101905060008167ffffffffffffffff8111156115de576115de6119ef565b6040519080825280601f01601f191660200182016040528015611608576020820181803683370190505b5090508181016020015b600019016f181899199a1a9b1b9c1cb0b131b232b360811b600a86061a8153600a850494508461161257509392505050565b60006001600160a01b03831615801590610bca5750826001600160a01b0316846001600160a01b0316148061167e575061167e8484610d68565b80610bca5750506000908152600460205260409020546001600160a01b03908116911614919050565b6001600160a01b0382166116d157604051633250574960e11b81526000600482015260240161052a565b60006116df83836000610e3c565b90506001600160a01b038116156105af576040516339e3563760e11b81526000600482015260240161052a565b60008072184f03e93ff9f4daa797ed6e38ed64bf6a1f0160401b831061174b5772184f03e93ff9f4daa797ed6e38ed64bf6a1f0160401b830492506040015b6d04ee2d6d415b85acef81000000008310611777576d04ee2d6d415b85acef8100000000830492506020015b662386f26fc10000831061179557662386f26fc10000830492506010015b6305f5e10083106117ad576305f5e100830492506008015b61271083106117c157612710830492506004015b606483106117d3576064830492506002015b600a83106104345760010192915050565b6040805160a08101825260008082526020820181905291810182905260608101829052608081019190915290565b6001600160e01b03198116811461182857600080fd5b50565b60006020828403121561183d57600080fd5b813561085581611812565b60005b8381101561186357818101518382015260200161184b565b50506000910152565b60008151808452611884816020860160208601611848565b601f01601f19169290920160200192915050565b602081526000610855602083018461186c565b6000602082840312156118bd57600080fd5b5035919050565b80356001600160a01b03811681146118db57600080fd5b919050565b600080604083850312156118f357600080fd5b6118fc836118c4565b946020939093013593505050565b60008060006060848603121561191f57600080fd5b611928846118c4565b9250611936602085016118c4565b9150604084013590509250925092565b805182526020808201516001600160a01b039081169184019190915260408083015190911690830152606080820151908301526080908101511515910152565b6020808252825182820181905260009190848201906040850190845b818110156119c8576119b5838551611946565b9284019260a092909201916001016119a2565b50909695505050505050565b6000602082840312156119e657600080fd5b610855826118c4565b634e487b7160e01b600052604160045260246000fd5b600067ffffffffffffffff80841115611a2057611a206119ef565b604051601f8501601f19908116603f01168101908282118183101715611a4857611a486119ef565b81604052809350858152868686011115611a6157600080fd5b858560208301376000602087830101525050509392505050565b60008060408385031215611a8e57600080fd5b823567ffffffffffffffff811115611aa557600080fd5b8301601f81018513611ab657600080fd5b611ac585823560208401611a05565b95602094909401359450505050565b60a081016104348284611946565b60008060408385031215611af557600080fd5b611afe836118c4565b915060208301358015158114611b1357600080fd5b809150509250929050565b60008060008060808587031215611b3457600080fd5b611b3d856118c4565b9350611b4b602086016118c4565b925060408501359150606085013567ffffffffffffffff811115611b6e57600080fd5b8501601f81018713611b7f57600080fd5b611b8e87823560208401611a05565b91505092959194509250565b60008060408385031215611bad57600080fd5b611bb6836118c4565b9150611bc4602084016118c4565b90509250929050565b600181811c90821680611be157607f821691505b602082108103611c0157634e487b7160e01b600052602260045260246000fd5b50919050565b8082018082111561043457634e487b7160e01b600052601160045260246000fd5b634e487b7160e01b600052603260045260246000fd5b60008351611c50818460208801611848565b835190830190611c64818360208801611848565b01949350505050565b601f8211156105af576000816000526020600020601f850160051c81016020861015611c965750805b601f850160051c820191505b818110156113b257828155600101611ca2565b815167ffffffffffffffff811115611ccf57611ccf6119ef565b611ce381611cdd8454611bcd565b84611c6d565b602080601f831160018114611d185760008415611d005750858301515b600019600386901b1c1916600185901b1785556113b2565b600085815260208120601f198616915b82811015611d4757888601518255948401946001909101908401611d28565b5085821015611d655787850151600019600388901b60f8161c191681555b5050505050600190811b01905550565b6001600160a01b0385811682528416602082015260408101839052608060608201819052600090611da89083018461186c565b9695505050505050565b600060208284031215611dc457600080fd5b81516108558161181256fea2646970667358221220ca6c4b380e71aef20dc2d54e0ed3b972bc359739b1d9e25db5e0fddf44c2b2a664736f6c63430008190033","linkReferences":{}},"methodIdentifiers":{"approve(address,uint256)":"095ea7b3","balanceOf(address)":"70a08231","createToken(string,uint256)":"72b3b620","executeSale(uint256)":"9b1225c4","getAllNFTs()":"e0391b09","getApproved(uint256)":"081812fc","getCurrentToken()":"ef2d1746","getLatestIdToListedToken()":"d1a88ae5","getListPrice()":"68f1945f","getListedTokenForId(uint256)":"8e264590","getMyNFTs()":"629cb2e4","getOwner()":"893d20e8","isApprovedForAll(address,address)":"e985e9c5","name()":"06fdde03","ownerOf(uint256)":"6352211e","safeTransferFrom(address,address,uint256)":"42842e0e","safeTransferFrom(address,address,uint256,bytes)":"b88d4fde","setApprovalForAll(address,bool)":"a22cb465","supportsInterface(bytes4)":"01ffc9a7","symbol()":"95d89b41","tokenURI(uint256)":"c87b56dd","transferFrom(address,address,uint256)":"23b872dd","updateListPrice(uint256)":"c322579c"},"id":30}